:100000000C946D000C9495000C9495000C94950044
:100010000C9495000C9495000C9495000C9495000C
:100020000C9495000C9495000C9495000C949500FC
:100030000C9495000C9495000C9495000C949500EC
:100040000C94791A0C9495000C944A1C0C94981CEE
:100050000C9495000C9495000C9495000C949500CC
:100060000C9495000C9495007C3C3E5E2B3D3F2FFC
:100070005B5D3B2C2A225C0000000000240027006E
:100080002A0000000000250028002B0000000000CE
:1000900023002600290004040404040404040202CA
:1000A00002020202030303030303010204081020F7
:1000B0004080010204081020010204081020000002
:1000C0000007000201000003040600000000000019
:1000D0000000170141077D1D100111241FBECFEF45
:1000E000D8E0DEBFCDBF12E0A0E0B1E0ECE1FDE37F
:1000F00002C005900D92A234B107D9F715E0A2E431
:10010000B2E001C01D92A839B107E1F710E0C8EDD7
:10011000D0E004C02297FE010E947D1EC23DD1079F
:10012000C9F70E94D31D0C94811E0C940000FB01A2
:10013000DC0104C08D910190801921F441505040A0
:10014000C8F7881B990B0895FB01DC018D91813460
:100150001CF08B350CF4805E619161341CF06B35C2
:100160000CF4605E861B611189F3990B0895FB0105
:10017000DC010D900020E9F7119701900D9200200D
:10018000E1F70895FC018191861721F08823D9F7C2
:10019000992708953197CF010895FB01DC01019063
:1001A0000D920020E1F70895FB01DC014150504021
:1001B00088F08D9181341CF08B350CF4805E619158
:1001C00061341CF06B350CF4605E861B611171F3B9
:1001D000990B0895881BFCCFFB01DC014150504076
:1001E00048F001900D920020C9F701C01D924150C6
:1001F0005040E0F708958130910541F46F5F7F4FE3
:1002000071F48CE492E00E940B060895892B39F476
:100210006F5F7F4F21F48CE492E00E941E060895E8
:1002200080E090E06FEF7FEF0E94FB00089581E097
:1002300090E06FEF7FEF0E94FB00089521E0209394
:1002400044028093450290934602FC0101900020F5
:10025000E9F73197E81BF90BF0934802E093470266
:1002600010924A02109249020895FF920F931F9331
:10027000F82E082F10E0682F61708EE00E94A21BFC
:1002800015950795602F61708FE00E94A21B159550
:100290000795602F617081E10E94A21B159507955B
:1002A000017082E1602F0E94A21BF09243021F9115
:1002B0000F91FF9008958AE060E00E94A21B6CE21B
:1002C00071E080E090E00E94CF1A8AE061E00E9435
:1002D000A21B64E670E080E090E00E94CF1A8FE8F5
:1002E00092E06AE00E94A6096CE271E080E090E092
:1002F0000E94CF1A0895FF920F931F9385E00E94EA
:10030000F61B182F86E00E94F61B082F87E00E943C
:10031000F61BF82E88E00E94F61B982F10924202DE
:10032000112319F081E080934202002329F080918B
:100330004202826080934202FF2029F080914202B3
:10034000846080934202992329F080914202886060
:100350008093420290934B021F910F91FF9008955A
:10036000AF92BF92CF92DF92EF92FF920F931F93C3
:10037000DF93CF93CDB7DEB729970FB6F894DEBFE2
:100380000FBECDBF0E947B0180914202882321F0E5
:1003900080914B028823B1F388E00E9435010E94CE
:1003A0007B0180914202873021F080914B028823AB
:1003B000B1F30E947B0110924A02109249028CE430
:1003C00092E00E946006882349F08CE492E00E944B
:1003D0003C0690934802809347020FC0A0914502CB
:1003E000B0914602FD0101900020E9F73197EA1B28
:1003F000FB0BF0934802E0934702809147029091F3
:100400004802181619060CF49FC00DC18CE492E046
:100410000E946006882341F08CE492E0B60141E03E
:1004200050E00E94381E0CC0E0914502F091460257
:100430008091490290914A02E80FF91F80818983D7
:100440008CE00E9435010E947B0180914202843041
:1004500021F080914B028823B1F30E947B018981B6
:10046000982F91709A83982F92709B83982F9470F5
:100470009C83982F98709D83982F90719E83982FBE
:1004800090729F83982F90749887807889877501E0
:10049000F7018081882311F08FE001C08EE00E9477
:1004A00035010E947B0100E010E08091420285301E
:1004B00009F494C080914B02882309F08FC0FFE1BA
:1004C00000341F0709F48AC00F5F1F4F0E947B0191
:1004D000ECCF80914202833009F488C080914B02B6
:1004E000882309F083C08FE10034180709F47EC027
:1004F0000F5F1F4F0E947B01ECCF89E00E94350106
:1005000063E070E080E090E00E94CF1A80914902A1
:1005100090914A02019690934A02809349020E9468
:100520007B0100E010E0809142028630B1F08091C2
:100530004B02882391F4EFE100341E0771F00F5F46
:100540001F4F0E947B01EFCF6E010894C11CD11C8C
:1005500039E0A32EB12CAC0EBD1E20914902309182
:100560004A028091470290914802281739072CF4DB
:1005700080914B02882309F449CF109244028AE00B
:100580000E94350163E070E080E090E00E94CF1AA5
:100590000E947B0100E010E0809142028130A9F1CD
:1005A00080914B02882389F5FFE100341F0769F130
:1005B0000F5F1F4F0E947B01EFCF80914202882383
:1005C00091F180914B02882371F58FE10034180777
:1005D00051F10F5F1F4F0E947B01EFCF8DE00E9412
:1005E00035010E947B0100E010E073CF0E947B0187
:1005F00080914202863009F480CF0894E108F10826
:10060000EC14FD0409F044CF78CF80E00E9435015E
:1006100063E070E080E090E00E94CF1A0E947B01CE
:1006200000E010E0CACF29960FB6F894DEBF0FBEE7
:10063000CDBFCF91DF911F910F91FF90EF90DF9091
:10064000CF90BF90AF900895EF92FF920F931F93BA
:10065000DF93CF93CDB7DEB7CC56D0400FB6F8942A
:10066000DEBF0FBECDBF8C01FC018081882309F461
:10067000C8C1C80160E071E00E94A400892B31F478
:100680000E945B0187E091E00E941E01C8016AE2BE
:1006900071E00E94A400892B09F060C00E945B01F8
:1006A000CE0101966FE872E042E351E021E00E9442
:1006B00081088B819C8190934F0280934E028D81A3
:1006C0009E81AF81B8858093500290935102A09390
:1006D0005202B093530289859A85AB85BC8580937D
:1006E000540290935502A0935602B0935702A8E586
:1006F000B2E0FE013D968DE001900D928150E1F750
:100700008A8D9B8D9093660280936502CE0101963F
:100710000E941E0664E670E080E090E00E94CF1A1E
:100720008CE492E040E050E060E070E00E947F06E0
:1007300064E670E080E090E00E94CF1A8CE492E0E2
:100740000E946006882321F48EE391E00E941E013E
:100750000E94B0018CE492E00E946D06C80160E640
:1007600071E00E94A400892B09F060C00E945B0127
:10077000CE014C966FE872E048E651E021E00E941D
:1007800081088E8D9F8D90934F0280934E0288A199
:1007900099A1AAA1BBA18093500290935102A0936A
:1007A0005202B09353028CA19DA1AEA1BFA1809330
:1007B000540290935502A0935602B0935702A8E5B5
:1007C000B2E0FE01B8968DE001900D928150E1F704
:1007D0008DA99EA99093660280936502CE014C96E6
:1007E0000E941E0664E670E080E090E00E94CF1A4E
:1007F0008CE492E040E050E060E070E00E947F0610
:1008000064E670E080E090E00E94CF1A8CE492E011
:100810000E946006882321F485E791E00E941E0172
:100820000E94B0018CE492E00E946D06C80168E964
:1008300071E00E94A400892B09F066C00E945B0150
:10084000CE01C7966FE872E041EA51E021E00E94D4
:10085000810889AD9AAD90934F0280934E028BAD83
:100860009CADADADBEAD8093500290935102A0936C
:100870005202B0935302FE01FF9680819181A281C2
:10088000B3818093540290935502A0935602B09383
:100890005702A8E5B2E0FE01ED5BFF4F8DE001904D
:1008A0000D928150E1F7FE01E05BFF4F8081918165
:1008B0009093660280936502CE01C7960E941E0641
:1008C00064E670E080E090E00E94CF1A8CE492E051
:1008D00040E050E060E070E00E947F0664E670E077
:1008E00080E090E00E94CF1A8CE492E00E946006C3
:1008F000882321F48EEA91E00E941E010E94B0013B
:100900008CE492E00E946D06C80161ED71E047E061
:1009100050E00E94D400892B09F073C00E945B0153
:1009200048E0E42EF12CE00EF11E8E010E5A1F4F0E
:10093000C8016FE872E0A70121E00E948108F80178
:100940008281938190934F0280934E02848195819E
:10095000A681B7818093500290935102A0935202D6
:10096000B093530280859185A285B385809354020C
:1009700090935502A0935602B0935702A8E5B2E0B7
:100980003C968DE001900D928150E1F7FE01EE5A08
:10099000FF4F818D928D9093660280936502CF0107
:1009A0000E941E0664E670E080E090E00E94CF1A8C
:1009B0008CE492E040E050E060E070E00E947F064E
:1009C00064E670E080E090E00E94CF1A8CE492E050
:1009D0000E946006882379F487E692E069ED71E071
:1009E0000E94CD0087E692E0B7010E94B70087E63B
:1009F00092E00E941E010E94B0018CE492E00E94ED
:100A00006D06C459DF4F0FB6F894DEBF0FBECDBFE1
:100A1000CF91DF911F910F91FF90EF9008950E9469
:100A20007B011092440210924B0210924A021092E3
:100A300049021092480210924702109267020895EC
:100A40006F927F928F929F92AF92BF92CF92DF92DE
:100A5000EF92FF920F931F93CF93DF930E940F05A6
:100A60008CE390E00E944419D92EC82FD92FA82ECC
:100A70009C01F9016CE3E62EF12CEC0EFD1E1192A7
:100A8000EE15FF05E1F751E0652E712C812C912CBC
:100A90000E947B01809142028B3009F45FC08C3050
:100AA00074F48830B1F0893024F4882309F447C005
:100AB00062C0893091F18A3009F05DC036C08D3056
:100AC00051F18D3094F08E3009F18F3009F053C020
:100AD00012C087E00E9435018A2D9D2D9C01F901ED
:100AE0001192EE15FF05E1F727C084E00E94350161
:100AF000BB24CC2440C0D401C3010C2C04C0880FFB
:100B0000991FAA1FBB1F0A94D2F7B82A85E00E943A
:100B10003501C39430C083E02CC0FE01E00FF11F0B
:100B2000B0820F5F1F4F86E024C00C0F1D1FF8011D
:100B3000108281E00E94350100E010E01CC080E0DE
:100B40000E943501CE010E9424038A2D9D2D9C0117
:100B5000F9011192EE15FF05E1F70DC089E060E0A3
:100B60000E94A21B6FE070E080E090E00E94CF1A2C
:100B700082E00E94350180914402882361F08091D7
:100B80004202882341F480914B02882321F40E9481
:100B9000B0010E940F0563E070E080E090E00E94E9
:100BA000CF1A76CF85E060E00E94631B86E060E0AC
:100BB0000E94631B87E060E00E94631B88E060E0A6
:100BC0000E94631B8EE061E00E94631B8FE061E086
:100BD0000E94631B81E161E00E94631B82E161E08E
:100BE0000E94631B89E061E00E94631B89E061E071
:100BF0000E94A21B80E00E9435018AE061E00E9411
:100C0000631B8AE061E00E94A21B8FE892E06AE029
:100C10000E94A6090895FC011382128288EE93E0D7
:100C2000A0E0B0E084839583A683B7838EE192E051
:100C300091838083128E118E14860895FC018EE1BB
:100C400092E0918380830895DF93CF930F92CDB785
:100C5000DEB7FC016983A081B18112962D913C9190
:100C60001397BE016F5F7F4F41E050E0F901099596
:100C70000F90CF91DF910895DC015996ED91FC9191
:100C80005A97309719F420E030E018C0238934894E
:100C90004589568982859385A485B585281B390B9E
:100CA0004A0B5B0B2030B0E83B07B0E04B07B0E0ED
:100CB0005B0720F02FEF3FE740E050E0C9010895C7
:100CC000DC015996ED91FC915A97309711F480E030
:100CD00008958581811181E00895CF93DF93EC0120
:100CE000898D9A8D009741F00E942F0E898D9A8DE3
:100CF0000E94E1191A8E198EDF91CF910895FC019F
:100D0000818D928D009711F480E008950E941F0D4F
:100D10000895FC01818D928D009711F00E94E50DE0
:100D20000895DF93CF930F92CDB7DEB7FC01818D8D
:100D3000928D009749F0BE016F5F7F4F41E050E018
:100D40000E94060F019719F02FEF3FEF03C0898132
:100D5000282F30E0C9010F90CF91DF910895EF92D5
:100D6000FF920F931F93DF93CF930F92CDB7DEB710
:100D70007C01DC0159968D919C915A97009719F44A
:100D800000E010E01FC0BE016F5F7F4F41E050E008
:100D90000E94060F019719F00FEF1FEF13C0898112
:100DA000082F10E0D7015996ED91FC915A97428592
:100DB0005385648575854150504060407040CF0137
:100DC0000E941F0DC8010F90CF91DF911F910F91CD
:100DD000FF90EF900895CF93DF93EC01E98DFA8DAA
:100DE000309761F013821282CF010E944B119C0157
:100DF000E98DFA8D82819381892B31F081E090E039
:100E00009B838A8320E030E0C901DF91CF91089570
:100E1000EF92FF920F931F93CF93DF93EC01F62E87
:100E2000E72E8A011B821A8288EE93E0A0E0B0E0F0
:100E30008C839D83AE83BF838EE192E09983888308
:100E40008DE190E00E9444199A8F898F009791F06C
:100E5000DC018F2D9E2D9C01F9018DE101900D92F9
:100E60008150E1F7CE010C96B8014CE050E00E94B1
:100E7000EC00188EDF91CF911F910F91FF90EF90B2
:100E80000895109294021092950210929802109276
:100E90009A0282E090E0A0E0B0E080939B02909301
:100EA0009C02A0939D02B0939E021092B2021092F7
:100EB000BC021092BB028EE292E09093BA02809341
:100EC000B9021092BE0208952F923F924F925F9204
:100ED0006F927F928F929F92AF92BF92CF92DF924A
:100EE000EF92FF920F931F93DF93CF93CDB7DEB7AF
:100EF000C754D0400FB6F894DEBF0FBECDBF582EFA
:100F0000492EFB013A01190184A595A5998B888B7F
:100F10002EE232E03F872E8786A58A8B87A58B8BB2
:100F200080A991A9A2A9B3A98C8B9D8BAE8BBF8BF5
:100F300084A995A9A6A9B7A9888F998FAA8FBB8FD5
:100F400080AD91ADA2ADB3AD8C8F9D8FAE8FBF8FB5
:100F500084AD88A3FD9681919191A191B19189A3CE
:100F60009AA3ABA3BCA381919191A191B1918DA3BF
:100F70009EA3AFA3B8A7808191819AA789A71EA637
:100F80001DA63CA72BA718AA7A018E01025F1F4F4E
:100F90003BE2A32EB12CAC0EBD1E4E010894811C69
:100FA000911C35C0D7018C918F3221F40894E11C3B
:100FB000F11C2DC0422F4E194D3008F04CE0C42ECC
:100FC000DD24C401B701A6010E94EC00F401EC0D80
:100FD000FD1D1082C5010E942F0EC501B801A4019C
:100FE00021E00E947813882351F4E52DF42D13821B
:100FF00012828EE292E091838083158266C0EC0CAF
:10100000FD1CC8010E942F0EC50158018C01C701AB
:101010006FE270E00E94C2009C01009719F6E6188A
:10102000F708F101F182E082E52DF42DD801129646
:101030008D919C911397938382838EE292E09183AA
:10104000808314968C911497848315968C911597B0
:10105000858316962D913D914D915C91199726832C
:101060003783408751871A962D913D914D915C9120
:101070001D9722873387448755871E962D913D9172
:101080004D915C91519726873787408B518B5296B3
:101090008C915297828B53962D913D914D915C91FD
:1010A0005697238B348B458B568B57962D913D91BC
:1010B0004D915C915A97278B308F418F528F5B9661
:1010C0008D919C915C97948F838F852D942DC95B16
:1010D000DF4F0FB6F894DEBF0FBECDBFCF91DF91CB
:1010E0001F910F91FF90EF90DF90CF90BF90AF9046
:1010F0009F908F907F906F905F904F903F902F9038
:1011000008959F92AF92BF92CF92DF92EF92FF929B
:101110000F931F93DF93CF93CDB7DEB7C657D04061
:101120000FB6F894DEBF0FBECDBFC82E992E8A0130
:10113000D22E43E0A42EB12CAC0EBD1EC501A801D9
:101140009E012F5F3F4F0E946407E980FA80E00E06
:10115000F11EF70180814EE252E02885882309F0D4
:101160003FC08D819E819BA38AA359A348A38F81F1
:101170008CA32DA389859A85AB85BC858EA39FA35F
:10118000A8A7B9A78D859E85AF85B8898AA79BA793
:10119000ACA7BDA789899A89AB89BC898EA79FA76F
:1011A000A8ABB9AB8D898AAB8E899F89A88DB98D83
:1011B0008BAB9CABADABBEAB8A8D9B8DAC8DBD8D2F
:1011C0008FAB98AFA9AFBAAF8E8D9F8D9CAF8BAF11
:1011D0008C2D992DBE01605E7F4F4EE052E09FC086
:1011E000FE01FF96118210825EAF4DAFFE01EE5BF5
:1011F000FF4F10822223A9F02250CE01CD9622303B
:1012000048F469EB72E0A7012D2D0E947813882322
:1012100081F407C0B501A7012D2D0E947813882302
:1012200029F48C2D992D0E940B067BC0C5010E94CC
:101230002F0EF6E0DF2259F0FE01E05BFF4F408108
:10124000518162817381CE01CD960E941F0D9E0156
:10125000265A3F4FFE01FF9680819181F9019383C9
:1012600082838EE292E091838083FE01EF5BFF4FE9
:101270008081F9018483FE01EE5BFF4F8081F901DB
:101280008583FE01ED5BFF4F80819181A281B38157
:10129000F90186839783A087B187FE01E95BFF4F41
:1012A00080819181A281B381F90182879387A4878C
:1012B000B587FE01E55BFF4F80819181A281B381FB
:1012C000F90186879787A08BB18BFE01E15BFF4F09
:1012D0008081F901828BFE01E05BFF4F808191816B
:1012E000A281B381F901838B948BA58BB68BFE0110
:1012F000EC5AFF4F80819181A281B381F901878BE4
:10130000908FA18FB28FFE01E85AFF4F80819181AB
:10131000F901948F838F8C2D992DB901A7010E941B
:1013200008078C2D992DCA58DF4F0FB6F894DEBFF1
:101330000FBECDBFCF91DF911F910F91FF90EF9026
:10134000DF90CF90BF90AF909F9008950F931F9321
:10135000CF93DF93EC01462F61E00E940B0C8823B2
:10136000D1F08E01045F1F4FC801BE0141E00E9411
:101370001915882339F4C801BE0140E00E941915EF
:10138000882349F0CE018A96B8010E94651088230F
:1013900019F081E001C080E0DF91CF911F910F91A2
:1013A0000895FC01673020F086E1858380E0089590
:1013B000262F30E060FD02C0663019F48DB58E7FB7
:1013C00002C08DB581608DBD8CB58C7F8CBD4CB558
:1013D00022FD02C090E001C092E036952795822F51
:1013E0008170842B892B8CBD81E00895FF920F932F
:1013F0001F93CF93DF938B010E94C11AEB01FF244F
:10140000FA94FEBC0DB407FEFDCF8EB58F3F11F4EC
:1014100081E008C00E94C11A6C1B7D0B6017710728
:1014200080F380E0DF91CF911F910F91FF9008959D
:10143000FC01848160E00E94A21B0895FC0184816C
:1014400061E00E94A21B0895DC016EBDFA0120E05C
:1014500030E00DB407FEFDCF80818EBD0DB407FED8
:10146000FDCF81818EBD2E5F3F4F329682E02030CE
:10147000380779F70DB407FEFDCF8FEF8EBD0DB4A1
:1014800007FEFDCF8FEF8EBD0DB407FEFDCF8FEFB2
:101490008EBD0DB407FEFDCF8EB51A968C931A97AC
:1014A0008F71853011F481E0089581E115968C9358
:1014B0001597CD010E941E0A80E00895FF920F93B8
:1014C0001F93CF93DF93EC010E94C11A8B01FF247D
:1014D000FA9409C00E94C11A601B710B6D527140D1
:1014E00010F08FE00DC0FEBC0DB407FEFDCF8EB531
:1014F0008A878F3F79F38E3F11F481E006C08DE03B
:101500008D83CE010E941E0A80E0DF91CF911F9152
:101510000F91FF900895CF93DF93EC018E81882384
:10152000D1F08FEF8EBD2F8138854FEF04C00DB401
:1015300007FEFDCF4EBD2F5F3F4FC9010197815080
:101540009240A8F338872F830DB407FEFDCFCE015C
:101550000E941E0A1E82DF91CF910895DF92EF92C2
:10156000FF920F931F93CF93DF93EC01D62E790157
:101570008A010E948B0ACE010E94180ACE016CE2F9
:1015800071E00E94F6098D2D80648EBD0DB407FEBA
:10159000FDCF28E130E0D801C701022E04C0B69586
:1015A000A795979587950A94D2F78EBD0DB407FE3F
:1015B000FDCF285030408FEF283F380761F7DD20FE
:1015C00011F485E906C088E0D81611F487E801C057
:1015D0008FEF8EBD0DB407FEFDCF90E02FEF2EBD37
:1015E0000DB407FEFDCF8EB587FF02C09150B9F74D
:1015F0008A87DF91CF911F910F91FF90EF90DF903D
:101600000895CF92DF92EF92FF920F931F93CF93A3
:10161000DF93EC017A018B016901411551056105E8
:10162000710511F482E137C08B85833039F029E0F0
:10163000EE0CFF1C001F111F2A95D1F7CE0168E1A7
:10164000A80197010E94AE0A882311F084E023C00C
:10165000CE016EEFA6010E94240A8823E9F0CE0194
:1016600068E572E00E94F609882311F485E113C051
:10167000CE016DE020E030E040E050E00E94AE0A94
:10168000882341F48FEF8EBD0DB407FEFDCF8EB5DC
:10169000882379F084E18D83CE010E941E0A80E0C8
:1016A000DF91CF911F910F91FF90EF90DF90CF903E
:1016B0000895CE010E941E0A81E0F2CF8F929F9280
:1016C000AF92BF92CF92DF92EF92FF920F931F9350
:1016D000CF93DF93EC015A016B014901011511050C
:1016E00009F47BC0C801820F931F8150924008F01B
:1016F0006FC08E81882371F088819981AA81BB8116
:10170000481759076A077B0729F48F81988588163F
:10171000990618F5A882B982CA82DB828B8583304C
:1017200039F069E0AA0CBB1CCC1CDD1C6A95D1F712
:10173000CE0161E1A60195010E94AE0A882319F04D
:1017400083E08D8345C0CE010E945E0A882309F4A0
:101750003FC018861F8281E08E838FEF8EBD8F8100
:1017600098852FEF05C00DB407FEFDCF2EBD019665
:1017700088159905C0F398878F83D801119720E0C9
:1017800030E09FEF0BC00DB407FEFDCF8EB5F70123
:10179000E20FF31F80839EBD2F5F3F4F2A173B0749
:1017A00090F30DB407FEFDCF8EB5AE0DBF1D8C932B
:1017B0002F813885200F311F38872F838985882313
:1017C00019F02050324048F0CE010E948B0A05C02B
:1017D000CE010E941E0A80E001C081E0DF91CF911E
:1017E0001F910F91FF90EF90DF90CF90BF90AF903F
:1017F0009F908F900895EF92FF920F931F9379011E
:1018000020E030E000E012E00E945E0B1F910F919B
:10181000FF90EF900895BF92CF92DF92EF92FF92E8
:101820000F931F93CF93DF93EC01B62E1B8619867F
:101830001E821D824C830E94C11A6B018C8161E063
:101840000E94631BCE010E941E0A8CE060E00E9491
:10185000631B8BE061E00E94631B8DE061E00E94EE
:10186000631B8AE061E00E94631B8AE061E00E94E2
:10187000A21B83E58CBD8DB58E7F8DBD80E09FEF73
:101880009EBD0DB407FEFDCF8F5F8A30C9F7CE0134
:101890000E94180A09C00E94C11A6C197D09615D75
:1018A000774010F081E05EC0CE0160E020E030E0E3
:1018B00040E050E00E94AE0A182F8A87813059F725
:1018C000CE0168E02AEA31E040E050E00E94AE0A32
:1018D00082FF02C01B8711C080E02FEF2EBD0DB428
:1018E00007FEFDCF9EB58F5F8430C1F79A879A3A85
:1018F00011F082E037C082E08B878B85823021F047
:10190000EE24FF2487010FC0E12CF12C012DF0E41F
:101910001F2F09C00E94C11A6C197D09615D7740B3
:1019200010F088E01FC0CE0167E320E030E040E027
:1019300050E00E94AE0ACE0169E2A80197010E9420
:10194000AE0A8A87882331F78B85823031F5CE0144
:101950006AE320E030E040E050E00E94AE0A8823D5
:1019600039F086E08D83CE010E941E0A80E01CC003
:101970008FEF8EBD0DB407FEFDCF8EB5807C803C11
:1019800011F483E08B8780E09FEF9EBD0DB407FECE
:10199000FDCF2EB58F5F8330C1F7CE010E941E0AA6
:1019A000CE016B2D0E94D109DF91CF911F910F9134
:1019B000FF90EF90DF90CF90BF900895CF93DF938B
:1019C000EC01DB0180E090E020E2FD01E80FF91F6F
:1019D000208301968B309105C1F757E040E021C08C
:1019E0002E3219F088E690E007C05A3019F15AE01B
:1019F00048E017C03217F1F0FC010196349133230F
:101A0000C9F75417B8F02132A8F02F3798F4822F75
:101A100081568A3108F42052FD01E40FF11D208324
:101A20004F5F29912223E1F690E08C91803219F0EA
:101A300091E001C090E0892FDF91CF9108956F92DE
:101A40007F928F929F92AF92BF92CF92DF92EF924E
:101A5000FF920F931F93CF93DF93EC017A018B01D9
:101A60002D81222309F480C08B899C89AD89BE8990
:101A700084179507A607B70708F476C085C0E11458
:101A8000F1040105110549F41E821F82188619868A
:101A90001A861B861C861D8665C02A853B854C855B
:101AA0005D85EB8DFC8D858590E009962150304059
:101AB0004040504039014A01082E04C09694879452
:101AC000779467940A94D2F72F5F3F4F4F4F5F4F41
:101AD0000894E108F108010911095701680104C0DF
:101AE000D694C794B794A7948A95D2F70894E11C2A
:101AF000F11C011D111DA614B704C804D90428F057
:101B0000211531054105510549F48F89988DA98D1D
:101B1000BA8D8E839F83A887B98716C0A618B70889
:101B2000C808D90811C04E815F81688579858B8D81
:101B30009C8D94010E94FA160894A108B108C1086E
:101B4000D108882331F410C086E0882E912C8C0EA9
:101B50009D1EA114B104C104D10429F7EA86FB86B5
:101B60000C871D8781E001C080E0DF91CF911F913C
:101B70000F91FF90EF90DF90CF90BF90AF909F902C
:101B80008F907F906F900895223009F078CFE6CF44
:101B9000CF93DF93EC01462F6E857F8588899989E5
:101BA0000E94DE14882319F420E030E00AC08A89FC
:101BB000282F30E095E0220F331F9A95E1F7265247
:101BC0003D4FC901DF91CF9108950F931F93CF939C
:101BD000DF938C01FC0185818823D9F1848187FF03
:101BE00035C0C80161E00E94C80DEC01009789F181
:101BF000F8018581823040F483899489A589B6896A
:101C00008C8F9D8FAE8FBF8FF8018789908D9B8FB2
:101C10008A8F8789908DA18DB28DCD01AA27BB2790
:101C20009D8B8C8BE091D802F091D902309751F0C6
:101C3000BE016A5E7F4FCE0148960995888D998DC9
:101C40009B8B8A8BF80184818F7784830E947F1419
:101C500001C080E0DF91CF911F910F910895CF9344
:101C6000DF93EC010E94E50D882311F01D8281E0D5
:101C7000DF91CF9108956F927F928F929F92AF9252
:101C8000BF92CF92DF92EF92FF920F931F93DF9359
:101C9000CF9300D000D0CDB7DEB77C015A016B01E5
:101CA000DC0115968C911597813009F08FC0149640
:101CB0008C9181FF8BC09EC00097A105B10511F4E6
:101CC00081E085C0F7016284738484849584C701B0
:101CD000B601A5010E941F0D882309F477C0D70122
:101CE0005B968D919C915C97A114B104C104D104C1
:101CF00089F457964D915D916D917C915A970E9410
:101D00006D17882309F462C0F701178A108E118EAF
:101D1000128E3DC0D70116964D915D916D917C91CB
:101D200019979E012F5F3F4F0E94FA16882309F4EE
:101D30004DC0D7015B96ED91FC915C9749815A812A
:101D40006B817C818789803129F088EF9FEFAFEF2D
:101D5000BFE004C088EF9FEFA0E0B0E0481759074C
:101D60006A077B07A0F4CF010E946D17882371F1E9
:101D7000F7014681578160857185838D948D0FEFC2
:101D80001FEF2FEF3FE00E945E168823F9F0D70186
:101D90005396AD92BD92CD92DC92569714968C914B
:101DA0001497806814968C93C7010E94E50D8823D0
:101DB00069F0B601A5016A147B048C049D0410F43B
:101DC000B401A301C7010E941F0D01C080E00F9064
:101DD0000F900F900F90CF91DF911F910F91FF9077
:101DE000EF90DF90CF90BF90AF909F908F907F90BB
:101DF0006F900895F70183899489A589B68984171E
:101E00009507A607B70708F057CFE0CF2F923F926C
:101E10004F925F926F927F928F929F92AF92BF92FA
:101E2000CF92DF92EF92FF920F931F93CF93DF93A6
:101E3000EC012A018D81882309F4C6C08C8180FFC2
:101E4000C3C0D8C025014E185F084B0176E0272E8D
:101E5000312C2C0E3D1E3201B1C02A853B854C85AC
:101E60005D856FEFA62E61E0B62EA222B3228D8192
:101E700079018A0199E016950795F794E7949A9568
:101E8000D1F7EB8DFC8D823049F4428D538D648DFA
:101E9000758D4E0D5F1D601F711F3FC0D480DA9499
:101EA000DE20A114B104D9F4DD20C9F421153105D7
:101EB0004105510549F48F89988DA98DBA8D8E837E
:101EC0009F83A887B9870BC04E815F81688579851C
:101ED000CF0191010E94FA16882309F475C0EB8D99
:101EE000FC8D4E815F81688579854250504060400D
:101EF0007040058404C0440F551F661F771F0A9465
:101F0000D2F786859785A089B189480F591F6A1F26
:101F10007B1F4D0D511D611D711D80E092E08A19DE
:101F20009B0963018615970508F46C018C8186FD79
:101F300006C080E0C81682E0D80609F073C0809120
:101F4000100290911102A0911202B0911302481751
:101F500059076A077B0709F465C08091DA049091FC
:101F6000DB049501860174010E945E0B882361F1F8
:101F70008C0C9D1C12C0950126523D4FA9014C0DA1
:101F80005D1DD401F90102C081918D93E417F5071D
:101F9000D9F7E21BF30B8E0E9F1E960140E050E036
:101FA0008A859B85AC85BD85820F931FA41FB51FB5
:101FB0008A879B87AC87BD876C187D086114710484
:101FC00009F04BCFA20102C04FEF5FEFCA01DF91D2
:101FD000CF911F910F91FF90EF90DF90CF90BF9026
:101FE000AF909F908F907F906F905F904F903F90B9
:101FF0002F900895AB88BC88CD88DE88EA84FB8466
:102000000C851D859A0140E050E0D601C5018E196E
:102010009F09A00BB10B82179307A407B50708F41B
:1020200011CF13CFCB01BA0140E00E94DE14882308
:1020300009F0A1CFC9CFCF92DF92EF92FF920F9319
:102040001F93DF93CF930F92CDB7DEB76C01FC01E6
:102050008581823070F0E284F38404851585C601A1
:10206000BE016F5F7F4F41E050E00E94060F019775
:1020700069F020E030E0C9010F90CF91DF911F910E
:102080000F91FF90EF90DF90CF900895F601828539
:102090009385A485B5854F96A11DB11D8287938731
:1020A000A487B587F5E016950795F794E794FA9518
:1020B000D1F78E2D8F70282F30E0E5E0220F331FEF
:1020C000EA95E1F726523D4FD6CF0F931F93CF935A
:1020D000DF93EC018B018D81882309F041C0FB0166
:1020E00087898031B1F482E08D831F8A188E198E22
:1020F0001A8E808D918DA0E0B0E045E0880F991F89
:10210000AA1FBB1F4A95D1F78B8B9C8BAD8BBE8BC7
:1021100015C0803229F583E08D83FB01428D538DFC
:10212000648D758D4F8B588F698F7A8F9E012D5ED0
:102130003F4FC8010E94C617882391F01C8F0B8F58
:1021400081E08C831E821F82188619861A861B8660
:102150001C861D861E861F86188A198A1A8A01C047
:1021600080E0DF91CF911F910F9108951F93CF933E
:10217000DF93EC01142FE62FF0E075E0EE0FFF1F68
:102180007A95E1F7E652FD4F8385817121F0842F26
:10219000827409F054C06A8B8091100290911102F0
:1021A000A0911202B09113028E879F87A88BB98BE2
:1021B00084899589A0E0B0E0BC0155274427828D31
:1021C000938DA0E0B0E0482B592B6A2B7B2B4F8BD3
:1021D000588F698F7A8F838590E08871907000970F
:1021E00051F4848D958DA68DB78D8B8B9C8BAD8B8B
:1021F000BE8B81E00CC0409711F59E012D5E3F4FD4
:102200008B8D9C8D0E94C6178823C9F084E08D8336
:10221000812F8F708C831E821F82188619861A86E2
:102220001B861C861D8616FD02C081E009C0CE01FA
:1022300040E050E060E070E00E943B0E01C080E0B2
:10224000DF91CF911F910895CF93DF93EC019C0113
:102250002A5F3F4F8B8D9C8D41E050E060E070E045
:102260000E9435188823A1F08F89988DA98DBA8D89
:102270000097A105B10559F48E819F81A885B98584
:102280008F8B988FA98FBA8F8C8180688C8381E027
:10229000DF91CF9108952F923F924F925F927F925C
:1022A0008F929F92AF92BF92CF92DF92EF92FF9266
:1022B0000F931F93DF93CF9300D000D000D0CDB702
:1022C000DEB76C01162F072F5E834D83DC01159658
:1022D0008C911597813009F070C114968C9181FF13
:1022E0006CC18EC1F60143895489658976898285DE
:1022F0009385A485B58584179507A607B70731F0A0
:10230000C6010E941F0D882309F457C1812F902F09
:102310009C0129012D803E8017C1D6015B96ED916D
:10232000FC915C97DA01C90119E0B695A7959795DC
:1023300087951A95D1F774807A9478227FEF872E4B
:1023400071E0972E82229322772009F04EC08114EB
:10235000910409F04AC0D60116964D915D916D9198
:102360007C911997411551056105710581F45796C6
:102370008D919D910D90BC91A02D0097A105B10567
:1023800049F1F60186839783A087B1872EC0CF01DC
:102390009E012F5F3F4F0E94FA16882309F414C153
:1023A00029813A814B815C81D6015B96ED91FC914C
:1023B0005C978789803129F088EF9FEFAFEFBFE00E
:1023C00004C088EF9FEFA0E0B0E0281739074A0764
:1023D0005B0730F0C6010E942411882331F4EDC060
:1023E000F601268337834087518780E092E0881981
:1023F000990951018215930508F45C01D6015B9699
:10240000ED91FC915C971696ED90FD900D911C91CD
:1024100019978EEF9FEFAFEFBFEFE80EF91E0A1F7F
:102420001B1F058404C0EE0CFF1C001F111F0A9423
:10243000D2F786859785A089B189E80EF91E0A1F13
:102440001B1FE70CF11C011D111D90E0A91692E065
:10245000B90651F58091100290911102A0911202DB
:10246000B09113028E159F05A007B10761F48FEF9D
:102470009FEFAFEFBFEF8093100290931102A093F4
:102480001202B09313028091DA049091DB04B80138
:10249000A70192010E94010B882309F48EC0A0E0DD
:1024A000B2E04A0E5B1E3EC08114910409F5F601AC
:1024B000228533854485558583899489A589B68984
:1024C000281739074A075B0798F00E947F14882372
:1024D00009F473C0E0921002F0921102009312020C
:1024E000109313028091DC0481608093DC0408C0A7
:1024F000C801B70141E00E94DE14882309F45DC0E1
:10250000940126523D4FA9014A0D5B1DD201F901EC
:1025100002C08D918193E417F507D9F7E21BF30B05
:102520004E0E5F1E2A183B08950140E050E0F60170
:1025300082859385A485B585820F931FA41FB51F3F
:1025400082879387A487B587D6011A962D913D91EE
:102550004D915C911D972114310409F0DECE539604
:102560008D919D910D90BC91A02D82179307A4078A
:10257000B50748F4F601238B348B458B568B848149
:102580008068848311C08091D8029091D902892BF0
:1025900059F08D819E81892B39F0D60114968C914A
:1025A0001497806814968C93F601848183FF0EC083
:1025B000C6010E94E50D882349F481E090E0D60130
:1025C00013969C938E9312971E821D828D819E81FD
:1025D00026960FB6F894DEBF0FBECDBFCF91DF9128
:1025E0001F910F91FF90EF90DF90CF90BF90AF9031
:1025F0009F908F907F905F904F903F902F90089585
:1026000082FD70CE83CEDF93CF930F92CDB7DEB72E
:102610006983BE016F5F7F4F41E050E00E944B1124
:102620000F90CF91DF910895DF92EF92FF920F9379
:102630001F93CF93DF93EC010E942411882309F4A8
:102640004EC0EB8DFC8DEE80FF80088519858EEFE6
:102650009FEFAFEFBFEFE80EF91E0A1F1B1F0584A7
:1026600004C0EE0CFF1C001F111F0A94D2F78685D0
:102670009785A089B189E80EF91E0A1F1B1FD48017
:102680000894E108F108010911090BC0C801B7015C
:102690006D0D711D811D911D0E94BA148823F9F0E2
:1026A000DA94DD2099F7EB8DFC8D20E032E040E0FC
:1026B00050E0058404C0220F331F441F551F0A94A5
:1026C000D2F78B899C89AD89BE89820F931FA41F85
:1026D000B51F8B8B9C8BAD8BBE8B81E001C080E0E6
:1026E000DF91CF911F910F91FF90EF90DF900895B0
:1026F0006F927F928F929F92AF92BF92CF92DF9212
:10270000EF92FF920F931F93DF93CF93CDB7DEB776
:102710002B970FB6F894DEBF0FBECDBF5C016B01E7
:10272000822EDC0115968C91882309F0D2C0CA0153
:102730008E010F5F1F4FB8010E94DE0C882309F441
:10274000C8C0F601838D948DD5015C969C938E93C1
:102750005B971682178210861186D6011A961D92F3
:102760001D921D921C921D979924380141C0C601EB
:102770000E941B10FC01009709F4ABC085E0169580
:102780000795F794E7948A95D1F71E2D1F708081E5
:10279000882311F0853ED1F4992091F4D501529609
:1027A0001C93529720911002309111024091120215
:1027B000509113021E962D933D934D935C93519728
:1027C0008081882399F49924939421C0C301BF0187
:1027D0004BE050E00E949700009751F4882D8073E1
:1027E000803309F476C0C501612F6FC0992493949A
:1027F000F601E284F3840485158583899489A5898B
:10280000B689E816F9060A071B0708F4B0CF882D29
:102810008271823109F05DC0992041F0C50161E00B
:102820000E94C80D8C01009789F453C0D6011596FB
:102830008C91823009F44DC0C6010E941413882384
:1028400009F447C0F501128A0AED12E080E2D801CE
:102850001D928A95E9F7D801FE0131968BE001902F
:102860000D928150E1F7E091D802F091D9023097B2
:1028700039F0B801625F7F4FC8014096099509C0E1
:1028800081E298E2F801918B808B80E098E0978755
:102890008687D80150968D919C91519753969C9321
:1028A0008E93529759969C938E9358971E968D911E
:1028B0009C911F9757969C938E9356970E947F14D6
:1028C000882339F0C501F5016289482D0E94B610B0
:1028D00001C080E02B960FB6F894DEBF0FBECDBFCF
:1028E000CF91DF911F910F91FF90EF90DF90CF90EC
:1028F000BF90AF909F908F907F906F900895809140
:10290000DC04882399F140911002509111026091EA
:102910001202709113028091DA049091DB042AED87
:1029200032E00E94010B882319F14091DD0450919F
:10293000DE046091DF047091E004411551056105EA
:10294000710591F08091DA049091DB042AED32E078
:102950000E94010B882361F01092DD041092DE04C6
:102960001092DF041092E0041092DC0481E00895DC
:1029700080E00895EF92FF920F931F937B018C01EB
:102980000E947F148823A9F0EAEDF2E0119284E01E
:10299000EA3DF807D9F7E0921002F0921102009395
:1029A0001202109313028091DC0481608093DC0496
:1029B00081E01F910F91FF90EF900895DF92EF92C9
:1029C000FF920F931F937B018C01D42E80911002F4
:1029D00090911102A0911202B09113028E159F05E1
:1029E000A007B107C1F00E947F148823D9F080911D
:1029F000DA049091DB04B801A7012AED32E00E94CD
:102A0000FB0B882379F0E0921002F0921102009300
:102A10001202109313028091DC048D298093DC0450
:102A200081E001C080E01F910F91FF90EF90DF9057
:102A300008958F929F92AF92BF92CF92DF92EF92C2
:102A4000FF920F931F93CF93DF936C01142F70931A
:102A5000DB046093DA04442321F48824992454018C
:102A600040C0453008F01CC160E070E080E090E0BC
:102A700040E00E94DE14882309F412C1C12FD0E087
:102A80002197FE0174E0EE0FFF1F7A95E1F7E65201
:102A9000FD4FE254FE4F8081EE5BF14090E08F7776
:102AA0009070892B09F0FCC0E653FE4F8081918124
:102AB000A281B38184369105A105B10508F4F0C067
:102AC00064E0CC0FDD1F6A95E1F7C056DB4F8880CC
:102AD0009980AA80BB8081149104A104B10409F4F7
:102AE000DFC0C501B40140E00E94DE14882309F470
:102AF000D7C08091E5029091E6028050924009F0A3
:102B0000CFC02091EA02222309F4CAC08091E802D2
:102B10009091E902892B09F4C3C08091E7028823D0
:102B200009F4BEC0F601228B8091E70284831586EA
:102B300061E070E007C04F5FF601458741504830C3
:102B400008F0AEC0F6014585848190E09B01042E1B
:102B500002C0220F331F0A94E2F78217930759F736
:102B60002091F0023091F1022115310519F040E079
:102B700050E008C02091FE023091FF024091000316
:102B800050910103F6012583368347835087E090F7
:102B9000E802F090E90200E010E0E80CF91C0A1DE0
:102BA0001B1DE38AF48A058B168B8091EB029091B2
:102BB000EC02918F808F6091EA0270E080E090E0FB
:102BC0000E945C1E6E0D7F1D801F911FF601628F9B
:102BD000738F848F958F2091EB023091EC0255E03A
:102BE000220F331F5A95E1F721503E4F232F3327F1
:102BF000269540E050E0260F371F481F591F2687B3
:102C00003787408B518B8091ED029091EE020097B7
:102C100019F0A0E0B0E008C08091FA029091FB02A8
:102C2000A091FC02B091FD0285017401E21AF30A41
:102C3000040B150BA8019701280F391F4A1F5B1FB2
:102C4000F601058404C056954795379527950A9453
:102C5000D2F72187328743875487253FFFE03F071C
:102C6000F0E04F07F0E05F0710F48CE006C0255F4E
:102C70003F4F4040504028F480E1F601878B81E0CF
:102C800010C08091060390910703A0910803B091B2
:102C90000903F601828F938FA48FB58F80E2EECF68
:102CA00080E0DF91CF911F910F91FF90EF90DF9027
:102CB000CF90BF90AF909F908F9008954F925F926A
:102CC0006F927F928F929F92AF92BF92CF92DF923C
:102CD000EF92FF920F931F93CF93DF93EC016A0162
:102CE0007B0128013901423051056105710508F465
:102CF0006FC089859A85AB85BC850196A11DB11DE4
:102D000084179507A607B70708F462C02B893C898A
:102D10004D895E898F89803129F499278F2D7E2DE9
:102D20006D2D09C0C701B60117E096958795779577
:102D300067951A95D1F74B015C01820E931EA41E74
:102D4000B51E8091100290911102A0911202B091D3
:102D5000130288169906AA06BB0639F0C501B4010C
:102D600040E00E94DE14882399F18F89803149F474
:102D7000F601F070EE0FFF1FE652FD4F51824082C8
:102D80000DC0F601EF77F070EE0FFF1FEE0FFF1F83
:102D9000E652FD4F40825182628273828091DC0450
:102DA00081608093DC048A89823080F08D819E81ED
:102DB000AF81B885880E991EAA1EBB1E8092DD04C5
:102DC0009092DE04A092DF04B092E00481E001C0A2
:102DD00080E0DF91CF911F910F91FF90EF90DF90F6
:102DE000CF90BF90AF909F908F907F906F905F90AB
:102DF0004F900895CF92DF92EF92FF920F931F931F
:102E0000CF93DF93EC017A018B01690189859A8563
:102E1000AB85BC850196A11DB11D84179507A6073A
:102E2000B70708F450C02B893C894D895E898F898A
:102E3000803129F49927812F702F6F2D09C0C80187
:102E4000B701E7E09695879577956795EA95D1F76D
:102E5000260F371F481F591F8091100290911102B1
:102E6000A0911202B0911302281739074A075B0795
:102E700039F0CA01B90140E00E94DE14882319F13B
:102E80008F89803159F4F701F070EE0FFF1FE65281
:102E9000FD4F80819181A0E0B0E00EC0F701EF7797
:102EA000F070EE0FFF1FEE0FFF1FE652FD4F808107
:102EB0009181A281B381BF70F60180839183A28347
:102EC000B38381E001C080E0DF91CF911F910F912A
:102ED000FF90EF90DF90CF900895AF92BF92CF9286
:102EE000DF92EF92FF920F931F93DF93CF9300D067
:102EF00000D0CDB7DEB76C017A018B0182E090E0A3
:102F0000A0E0B0E0F60180839183A283B3835E01E9
:102F10000894A11CB11CC601B801A70195010E942B
:102F2000FA16882319F1C601B801A70100E010E0E4
:102F300020E030E00E945E168823C1F0E980FA802C
:102F40000B811C81F6018789803129F088EF9FEF82
:102F5000AFEFBFE004C088EF9FEFA0E0B0E0E8165D
:102F6000F9060A071B07B8F281E001C080E00F9064
:102F70000F900F900F90CF91DF911F910F91FF90C5
:102F8000EF90DF90CF90BF90AF9008954F925F92F7
:102F90006F927F928F929F92AF92BF92CF92DF9269
:102FA000EF92FF920F931F93DF93CF9300D000D047
:102FB000CDB7DEB76C0149835A836B837C833901BB
:102FC000EE24FF2487012E010894411C511C812C02
:102FD000A2E09A2EA12CB12C49815A816B817C816F
:102FE000C60192010E94FA16882351F1D501C4014D
:102FF000F601058404C0880F991FAA1FBB1F0A94FD
:10300000D2F7E80EF91E0A1F1B1F29813A814B8156
:103010005C818789803129F088EF9FEFAFEFBFE0B7
:1030200004C088EF9FEFA0E0B0E0281739074A07F7
:103030005B0790F2F301E082F1820283138381E067
:103040000F900F900F900F90CF91DF911F910F91E4
:10305000FF90EF90DF90CF90BF90AF909F908F90B8
:103060007F906F905F904F9008952F923F924F9274
:103070005F926F927F928F929F92AF92BF92CF9208
:10308000DF92EF92FF920F931F93DF93CF93CDB711
:10309000DEB72F970FB6F894DEBF0FBECDBF1C0171
:1030A0004A875B876C877D873F872E87D9010D9183
:1030B0001D912D913C91011511052105310549F016
:1030C000480159010894811C911CA11CB11C19864E
:1030D00010C0FC0180809180A280B38019868A850F
:1030E0009B85AC85BD850197A105B10511F491E0E3
:1030F0009987D10119968D919D910D90BC91A02D2C
:103100000196A11DB11D8D839E83AF83B887750184
:1031100064014424552432018E010F5F1F4FF101D9
:1031200081859285A385B485481659066A067B0673
:1031300008F090C08D819E81AF81B8858C159D056A
:10314000AE05BF0550F482E0882E912CA12CB12C45
:10315000B2E0CB2ED12CE12CF12CC101B701A6019C
:1031600098010E94FA16882309F474C089819A8113
:10317000AB81BC81A70196012F5F3F4F4F4F5F4F3F
:103180000097A105B10519F049015A010DC0281990
:1031900039094A095B098A859B85AC85BD85281755
:1031A00039074A075B0759F00894411C511C611C00
:1031B000711C0894C11CD11CE11CF11CB0CFC101D1
:1031C000A601B7010FEF1FEF2FEF3FE00E945E1641
:1031D000882399F43FC0260137010894410851081B
:1031E00061087108C101B301A201970186010E9423
:1031F0005E16882379F1730162018C149D04AE047C
:10320000BF0448F3AE85BF854D915D916D917C9172
:10321000411551056105710539F0C1019501840120
:103220000E945E168823B1F0EE85FF858082918230
:10323000A282B382F985FF2359F00894811C911C66
:10324000A11CB11CD1018D929D92AD92BC9213979D
:1032500081E001C080E02F960FB6F894DEBF0FBE6C
:10326000CDBFCF91DF911F910F91FF90EF90DF9035
:10327000CF90BF90AF909F908F907F906F905F9016
:103280004F903F902F9008950F931F93CF93DF930C
:10329000BC018230910510F462E070E0E091960587
:1032A000F091970540E050E0A0E0B0E024C08081BC
:1032B000918186179707D0F08617970771F482815E
:1032C0009381109729F013969C938E9312972CC09C
:1032D000909397058093960527C04115510519F0E5
:1032E0008417950718F48D01AC01EF01DF0182818D
:1032F00093819C01F9013097D1F641155105F9F000
:10330000CA01861B970B8430910580F48A819B81CA
:103310000115110521F0F8019383828304C0909375
:10332000970580939605FE01329645C0FE01E80F91
:10333000F91F619371930297998388833CC08091B0
:10334000940590919505892B41F4809116029091F6
:10335000170290939505809394054091180250911F
:1033600019024115510541F44DB75EB78091140221
:1033700090911502481B590B2091940530919505A9
:1033800024173507B0F4CA01821B930B86179707E1
:1033900080F0AB014E5F5F4F8417950750F0420FEE
:1033A000531F5093950540939405F90161937193D0
:1033B00002C0E0E0F0E0CF01DF91CF911F910F91CB
:1033C0000895CF93DF939C01009709F48FC0EC011F
:1033D00022971B821A82609196057091970561155C
:1033E000710581F488819981820F931F2091940542
:1033F000309195052817390739F5D0939505C09375
:10340000940574C0DB0140E050E0AC17BD0708F143
:10341000BB83AA83FE0121913191E20FF31FAE1706
:10342000BF0779F48D919C911197280F391F2E5F5A
:103430003F4F3983288312968D919C9113979B83DC
:103440008A834115510571F4D0939705C093960571
:103450004DC012968D919C911397AD01009711F07C
:10346000DC01D3CFDA011396DC93CE931297FA01E5
:1034700021913191E20FF31FCE17DF0769F48881A4
:103480009981280F391F2E5F3F4FFA013183208326
:103490008A819B8193838283E0E0F0E0DB011296D6
:1034A0008D919C911397009719F0BC01FD01F6CF07
:1034B000AB014E5F5F4FDB018D919C91840F951F97
:1034C00020919405309195052817390779F43097A4
:1034D00029F4109297051092960502C01382128269
:1034E000425050405093950540939405DF91CF9101
:1034F00008951F920F920FB60F9211242F933F93AE
:103500008F939F93AF93BF938091E5049091E604CE
:10351000A091E704B091E8043091E9040196A11D5F
:10352000B11D232F2D5F2D3720F02D570196A11DA2
:10353000B11D2093E9048093E5049093E604A093E1
:10354000E704B093E8048091E1049091E204A09133
:10355000E304B091E4040196A11DB11D8093E10440
:103560009093E204A093E304B093E404BF91AF917D
:103570009F918F913F912F910F900FBE0F901F90B1
:1035800018958FB7F8942091E5043091E6044091A6
:10359000E7045091E8048FBFB901CA0108959B0167
:1035A000AC017FB7F8948091E1049091E204A0917E
:1035B000E304B091E40466B5A89B05C06F3F19F021
:1035C0000196A11DB11D7FBFBA2FA92F982F882763
:1035D000860F911DA11DB11D62E0880F991FAA1FC2
:1035E000BB1F6A95D1F7BC012DC0FFB7F89480913D
:1035F000E1049091E204A091E304B091E404E6B503
:10360000A89B05C0EF3F19F00196A11DB11DFFBF9A
:10361000BA2FA92F982F88278E0F911DA11DB11D9C
:10362000E2E0880F991FAA1FBB1FEA95D1F7861BFE
:10363000970B885E9340C8F2215030404040504084
:1036400068517C4F211531054105510571F60895EA
:10365000789484B5826084BD84B5816084BD85B56D
:10366000826085BD85B5816085BDEEE6F0E0808134
:1036700081608083E1E8F0E0108280818260808355
:10368000808181608083E0E8F0E0808181608083D8
:10369000E1EBF0E0808184608083E0EBF0E080810A
:1036A00081608083EAE7F0E08081846080838081AC
:1036B0008260808380818160808380818068808354
:1036C0001092C1000895CF93DF93482F50E0CA01B4
:1036D00086559F4FFC0134914A565F4FFA01849101
:1036E000882369F190E0880F991FFC01E858FF4F8B
:1036F000A591B491FC01EE57FF4FC591D49166237B
:1037000051F42FB7F8948C91932F909589238C9333
:10371000888189230BC0623061F42FB7F8948C91B3
:10372000932F909589238C938881832B88832FBF37
:1037300006C09FB7F8948C91832B8C939FBFDF9129
:10374000CF910895482F50E0CA0182549F4FFC0149
:103750002491CA0186559F4FFC0194914A565F4FB0
:10376000FA013491332309F440C0222351F123306C
:1037700071F0243028F42130A1F0223011F514C06A
:103780002630B1F02730C1F02430D9F404C0809144
:1037900080008F7703C0809180008F7D80938000B0
:1037A00010C084B58F7702C084B58F7D84BD09C0F9
:1037B0008091B0008F7703C08091B0008F7D80939F
:1037C000B000E32FF0E0EE0FFF1FEE57FF4FA59183
:1037D000B4912FB7F894662321F48C9190958923A6
:1037E00002C08C91892B8C932FBF0895682F70E0B5
:1037F000CB0182549F4FFC012491CB0186559F4FF2
:10380000FC0144916A567F4FFB019491992319F46E
:1038100020E030E03CC0222351F1233071F024300D
:1038200028F42130A1F0223011F514C02630B1F077
:103830002730C1F02430D9F404C0809180008F7704
:1038400003C0809180008F7D8093800010C084B57C
:103850008F7702C084B58F7D84BD09C08091B00090
:103860008F7703C08091B0008F7D8093B000892F47
:1038700090E0880F991F84579F4FFC01A591B49148
:103880008C9120E030E0842311F021E030E0C90188
:10389000089508951F920F920FB60F9211242F933F
:1038A0003F934F938F939F93EF93FF938091C0002B
:1038B00082FD1DC04091C60020912A0530912B0544
:1038C0002F5F3F4F2F73307080912C0590912D0505
:1038D0002817390771F0E0912A05F0912B05E65180
:1038E000FB4F408330932B0520932A0502C0809123
:1038F000C600FF91EF919F918F914F913F912F9132
:103900000F900FBE0F901F901895E0917E05F091DB
:103910007F05E05CFF4F8191919120813181821B75
:10392000930B8F739070892B11F00E94491C08959E
:103930001F920F920FB60F9211242F933F938F93E4
:103940009F93EF93FF9320916E0530916F058091C7
:103950007005909171052817390731F48091C100E5
:103960008F7D8093C10014C0E0917005F0917105C6
:10397000E25DFA4F2081809170059091710501966A
:103980008F73907090937105809370052093C6009B
:10399000FF91EF919F918F913F912F910F900FBECB
:1039A0000F901F901895DC011C96ED91FC911D97CE
:1039B000E05CFF4F2191319180819181281B390B6F
:1039C0002F733070C9010895DC011C96ED91FC91B4
:1039D0001D97E05CFF4F20813181E054F040DF0112
:1039E000AE5BBF4F8D919C9111972817390719F441
:1039F0002FEF3FEF07C08D919C91E80FF91F808159
:103A0000282F30E0C9010895DC011C96ED91FC914E
:103A10001D97E05CFF4F20813181E054F040DF01D1
:103A2000AE5BBF4F8D919C9111972817390719F400
:103A30002FEF3FEF10C08D919C911197E80FF91F68
:103A400020818D919C91119701968F7390701196A2
:103A50009C938E9330E0C9010895DC0191968C917E
:103A60009197882339F05496ED91FC915597808178
:103A700086FFF9CF91961C920895CF93DF93EC01C6
:103A8000EE85FF85E05CFF4F20813181E054F040FE
:103A90002F5F3F4F2F733070DF01AE5BBF4F8D91B3
:103AA0009C91119728173907D1F3E05CFF4F808173
:103AB0009181E054F040E80FF91F6083EE85FF85A7
:103AC000E05CFF4F31832083EE89FF89208181E014
:103AD00090E00F8C02C0880F991F0A94E2F7282B00
:103AE000208381E089A3EC89FD89808180648083C3
:103AF00081E090E0DF91CF910895109275051092CA
:103B0000740588EE93E0A0E0B0E080937605909392
:103B10007705A0937805B093790586E392E09093BA
:103B20007305809372058AEE94E090937F058093ED
:103B30007E058EE295E0909381058093800585EC6B
:103B400090E0909383058093820584EC90E09093BD
:103B500085058093840580EC90E0909387058093A1
:103B6000860581EC90E0909389058093880582EC2E
:103B700090E090938B0580938A0586EC90E090937B
:103B80008D0580938C0584E080938E0583E080937F
:103B90008F0587E08093900585E08093910581E013
:103BA000809392050895CF93DF930E94281B0E9473
:103BB000D205C5E8DCE10E9420052097E1F30E94D0
:103BC000851CF9CFCF92DF92EF92FF920F931F9354
:103BD000CF93DF937C016B018A01C0E0D0E00FC07E
:103BE000D6016D916D01D701ED91FC910190F081AD
:103BF000E02DC7010995C80FD91F015010400115CC
:103C0000110571F7CE01DF91CF911F910F91FF90B8
:103C1000EF90DF90CF900895CF93DF93EC010E9457
:103C2000C11A688779878A879B87E881F98106802E
:103C3000F781E02DCE0109959C0197FF15C00E94E8
:103C4000C11A288539854A855B85621B730B840BF5
:103C5000950B2C813D814E815F816217730784072C
:103C6000950718F32FEF3FEFC901DF91CF9108952A
:103C7000CF92DF92EF92FF920F931F93CF93DF9338
:103C80006C018B017A01C0E0D0E009C0C6010E943E
:103C90000C1E97FD07C0F80181938F012196CE1568
:103CA000DF05A0F3CE01DF91CF911F910F91FF901F
:103CB000EF90DF90CF900895629FD001739FF00145
:103CC000829FE00DF11D649FE00DF11D929FF00DAC
:103CD000839FF00D749FF00D659FF00D9927729FE3
:103CE000B00DE11DF91F639FB00DE11DF91FBD016E
:103CF000CF0111240895EE0FFF1F0590F491E02DE0
:103D0000099410E0C8EDD0E004C0FE010E947D1EC1
:0C3D10002296CA3DD107C9F7F894FFCFF6
:103D1C00474554444952003D3D204449522D454E9F
:103D2C005452592053484F554C4420415050454112
:103D3C00522048455245203D3D0047455447414D92
:103D4C00450061706667616D652E42494E004552B3
:103D5C00524F522046494C45204E4F5420464F5509
:103D6C004E443A2041504647414D452E42494E0063
:103D7C0047455453504344007370616364657374D6
:103D8C002E42494E004552524F522046494C452036
:103D9C004E4F5420464F554E443A205350414344C5
:103DAC004553542E42494E00474554464C415348C6
:103DBC0000617066666C6173682E42494E00455214
:103DCC00524F522046494C45204E4F5420464F5599
:103DDC004E443A20415046464C4153482E42494E9F
:103DEC000042494E44554D50004552524F522046C8
:103DFC00494C45204E4F5420464F554E443A2000D6
:103E0C004552524F523A204D41525920484144207C
:103E1C0041204C4954544C45204C414D42002F00FC
:103E2C00FFFFFFFF80009805000000000000240643
:103E3C00EB063C069106AF06890600000000031352
:103E4C00E21D000000003D1DE21DD31C041DE41CFE
:023E5C002D1D1A
:00000001FF
